{
  "contractName": "Proxy",
  "abi": [
    {
      "inputs": [
        {
          "internalType": "string",
          "name": "_symbol",
          "type": "string"
        },
        {
          "internalType": "address",
          "name": "_token",
          "type": "address"
        }
      ],
      "name": "registerToken",
      "outputs": [
        {
          "internalType": "uint256",
          "name": "",
          "type": "uint256"
        }
      ],
      "stateMutability": "nonpayable",
      "type": "function"
    },
    {
      "inputs": [
        {
          "internalType": "string",
          "name": "_symbol",
          "type": "string"
        }
      ],
      "name": "totalSupply",
      "outputs": [
        {
          "internalType": "uint256",
          "name": "",
          "type": "uint256"
        }
      ],
      "stateMutability": "view",
      "type": "function"
    },
    {
      "inputs": [
        {
          "internalType": "string",
          "name": "_symbol",
          "type": "string"
        },
        {
          "internalType": "address",
          "name": "_account",
          "type": "address"
        }
      ],
      "name": "balanceOf",
      "outputs": [
        {
          "internalType": "uint256",
          "name": "",
          "type": "uint256"
        }
      ],
      "stateMutability": "view",
      "type": "function"
    },
    {
      "inputs": [
        {
          "internalType": "string",
          "name": "_symbol",
          "type": "string"
        },
        {
          "internalType": "address",
          "name": "_recipient",
          "type": "address"
        },
        {
          "internalType": "uint256",
          "name": "_amount",
          "type": "uint256"
        }
      ],
      "name": "transfer",
      "outputs": [
        {
          "internalType": "bool",
          "name": "",
          "type": "bool"
        }
      ],
      "stateMutability": "nonpayable",
      "type": "function"
    },
    {
      "inputs": [
        {
          "internalType": "string",
          "name": "_symbol",
          "type": "string"
        },
        {
          "internalType": "address",
          "name": "_owner",
          "type": "address"
        },
        {
          "internalType": "address",
          "name": "_spender",
          "type": "address"
        }
      ],
      "name": "allowance",
      "outputs": [
        {
          "internalType": "uint256",
          "name": "",
          "type": "uint256"
        }
      ],
      "stateMutability": "view",
      "type": "function"
    },
    {
      "inputs": [
        {
          "internalType": "string",
          "name": "_symbol",
          "type": "string"
        },
        {
          "internalType": "address",
          "name": "_spender",
          "type": "address"
        },
        {
          "internalType": "uint256",
          "name": "_amount",
          "type": "uint256"
        }
      ],
      "name": "approve",
      "outputs": [
        {
          "internalType": "bool",
          "name": "",
          "type": "bool"
        }
      ],
      "stateMutability": "nonpayable",
      "type": "function"
    },
    {
      "inputs": [
        {
          "internalType": "string",
          "name": "_symbol",
          "type": "string"
        },
        {
          "internalType": "address",
          "name": "_sender",
          "type": "address"
        },
        {
          "internalType": "address",
          "name": "_recipient",
          "type": "address"
        },
        {
          "internalType": "uint256",
          "name": "_amount",
          "type": "uint256"
        }
      ],
      "name": "transferFrom",
      "outputs": [
        {
          "internalType": "bool",
          "name": "",
          "type": "bool"
        }
      ],
      "stateMutability": "nonpayable",
      "type": "function"
    },
    {
      "inputs": [
        {
          "internalType": "string",
          "name": "_symbol",
          "type": "string"
        },
        {
          "internalType": "address",
          "name": "_spender",
          "type": "address"
        },
        {
          "internalType": "uint256",
          "name": "_addedValue",
          "type": "uint256"
        }
      ],
      "name": "increaseAllowance",
      "outputs": [
        {
          "internalType": "bool",
          "name": "",
          "type": "bool"
        }
      ],
      "stateMutability": "nonpayable",
      "type": "function"
    },
    {
      "inputs": [
        {
          "internalType": "string",
          "name": "_symbol",
          "type": "string"
        },
        {
          "internalType": "address",
          "name": "_spender",
          "type": "address"
        },
        {
          "internalType": "uint256",
          "name": "_subtractedValue",
          "type": "uint256"
        }
      ],
      "name": "decreaseAllowance",
      "outputs": [
        {
          "internalType": "bool",
          "name": "",
          "type": "bool"
        }
      ],
      "stateMutability": "nonpayable",
      "type": "function"
    }
  ],
  "bytecode": "0x608060405234801561001057600080fd5b5061170b806100206000396000f3fe608060405234801561001057600080fd5b50600436106100935760003560e01c806369f667ed1161006657806369f667ed14610158578063aa2fddc714610188578063bd5b93d2146101b8578063c415db13146101e8578063d63db6cc1461021857610093565b806304031852146100985780631fc38a8b146100c8578063495aff71146100f857806365d4fbf614610128575b600080fd5b6100b260048036038101906100ad919061117c565b610248565b6040516100bf919061151e565b60405180910390f35b6100e260048036038101906100dd9190611237565b610393565b6040516100ef91906114e3565b60405180910390f35b610112600480360381019061010d91906111d0565b610575565b60405161011f919061151e565b60405180910390f35b610142600480360381019061013d91906112b2565b6106c3565b60405161014f91906114e3565b60405180910390f35b610172600480360381019061016d919061117c565b6108a2565b60405161017f919061151e565b60405180910390f35b6101a2600480360381019061019d91906112b2565b61097a565b6040516101af91906114e3565b60405180910390f35b6101d260048036038101906101cd91906112b2565b610b59565b6040516101df91906114e3565b60405180910390f35b61020260048036038101906101fd919061113b565b610d38565b60405161020f919061151e565b60405180910390f35b610232600480360381019061022d91906112b2565b610e77565b60405161023f91906114e3565b60405180910390f35b600082600073ffffffffffffffffffffffffffffffffffffffff166000826040516102739190611428565b908152602001604051809103902060009054906101000a900473ffffffffffffffffffffffffffffffffffffffff1673ffffffffffffffffffffffffffffffffffffffff1614156102c357600080fd5b6000846040516102d39190611428565b908152602001604051809103902060009054906101000a900473ffffffffffffffffffffffffffffffffffffffff1673ffffffffffffffffffffffffffffffffffffffff166370a08231846040518263ffffffff1660e01b815260040161033a919061143f565b60206040518083038186803b15801561035257600080fd5b505afa158015610366573d6000803e3d6000fd5b505050506040513d601f19601f8201168201806040525081019061038a9190611319565b91505092915050565b600084600073ffffffffffffffffffffffffffffffffffffffff166000826040516103be9190611428565b908152602001604051809103902060009054906101000a900473ffffffffffffffffffffffffffffffffffffffff1673ffffffffffffffffffffffffffffffffffffffff16141561040e57600080fd5b6000806000886040516104219190611428565b908152602001604051809103902060009054906101000a900473ffffffffffffffffffffffffffffffffffffffff1673ffffffffffffffffffffffffffffffffffffffff1687878760405160240161047b93929190611483565b6040516020818303038152906040527fb642fe57000000000000000000000000000000000000000000000000000000007bffffffffffffffffffffffffffffffffffffffffffffffffffffffff19166020820180517bffffffffffffffffffffffffffffffffffffffffffffffffffffffff83818316178352505050506040516105059190611411565b600060405180830381855af49150503d8060008114610540576040519150601f19603f3d011682016040523d82523d6000602084013e610545565b606091505b50915091508161055457600080fd5b808060200190518101906105689190611112565b9350505050949350505050565b600083600073ffffffffffffffffffffffffffffffffffffffff166000826040516105a09190611428565b908152602001604051809103902060009054906101000a900473ffffffffffffffffffffffffffffffffffffffff1673ffffffffffffffffffffffffffffffffffffffff1614156105f057600080fd5b6000856040516106009190611428565b908152602001604051809103902060009054906101000a900473ffffffffffffffffffffffffffffffffffffffff1673ffffffffffffffffffffffffffffffffffffffff1663dd62ed3e85856040518363ffffffff1660e01b815260040161066992919061145a565b60206040518083038186803b15801561068157600080fd5b505afa158015610695573d6000803e3d6000fd5b505050506040513d601f19601f820116820180604052508101906106b99190611319565b9150509392505050565b600083600073ffffffffffffffffffffffffffffffffffffffff166000826040516106ee9190611428565b908152602001604051809103902060009054906101000a900473ffffffffffffffffffffffffffffffffffffffff1673ffffffffffffffffffffffffffffffffffffffff16141561073e57600080fd5b6000806000876040516107519190611428565b908152602001604051809103902060009054906101000a900473ffffffffffffffffffffffffffffffffffffffff1673ffffffffffffffffffffffffffffffffffffffff1686866040516024016107a99291906114ba565b6040516020818303038152906040527f0553e395000000000000000000000000000000000000000000000000000000007bffffffffffffffffffffffffffffffffffffffffffffffffffffffff19166020820180517bffffffffffffffffffffffffffffffffffffffffffffffffffffffff83818316178352505050506040516108339190611411565b600060405180830381855af49150503d806000811461086e576040519150601f19603f3d011682016040523d82523d6000602084013e610873565b606091505b50915091508161088257600080fd5b808060200190518101906108969190611112565b93505050509392505050565b60008073ffffffffffffffffffffffffffffffffffffffff168273ffffffffffffffffffffffffffffffffffffffff161415610913576040517f08c379a000000000000000000000000000000000000000000000000000000000815260040161090a906114fe565b60405180910390fd5b816000846040516109249190611428565b908152602001604051809103902060006101000a81548173ffffffffffffffffffffffffffffffffffffffff021916908373ffffffffffffffffffffffffffffffffffffffff1602179055506001905092915050565b600083600073ffffffffffffffffffffffffffffffffffffffff166000826040516109a59190611428565b908152602001604051809103902060009054906101000a900473ffffffffffffffffffffffffffffffffffffffff1673ffffffffffffffffffffffffffffffffffffffff1614156109f557600080fd5b600080600087604051610a089190611428565b908152602001604051809103902060009054906101000a900473ffffffffffffffffffffffffffffffffffffffff1673ffffffffffffffffffffffffffffffffffffffff168686604051602401610a609291906114ba565b6040516020818303038152906040527f9d61d234000000000000000000000000000000000000000000000000000000007bffffffffffffffffffffffffffffffffffffffffffffffffffffffff19166020820180517bffffffffffffffffffffffffffffffffffffffffffffffffffffffff8381831617835250505050604051610aea9190611411565b600060405180830381855af49150503d8060008114610b25576040519150601f19603f3d011682016040523d82523d6000602084013e610b2a565b606091505b509150915081610b3957600080fd5b80806020019051810190610b4d9190611112565b93505050509392505050565b600083600073ffffffffffffffffffffffffffffffffffffffff16600082604051610b849190611428565b908152602001604051809103902060009054906101000a900473ffffffffffffffffffffffffffffffffffffffff1673ffffffffffffffffffffffffffffffffffffffff161415610bd457600080fd5b600080600087604051610be79190611428565b908152602001604051809103902060009054906101000a900473ffffffffffffffffffffffffffffffffffffffff1673ffffffffffffffffffffffffffffffffffffffff168686604051602401610c3f9291906114ba565b6040516020818303038152906040527f8b069f2a000000000000000000000000000000000000000000000000000000007bffffffffffffffffffffffffffffffffffffffffffffffffffffffff19166020820180517bffffffffffffffffffffffffffffffffffffffffffffffffffffffff8381831617835250505050604051610cc99190611411565b600060405180830381855af49150503d8060008114610d04576040519150601f19603f3d011682016040523d82523d6000602084013e610d09565b606091505b509150915081610d1857600080fd5b80806020019051810190610d2c9190611112565b93505050509392505050565b600081600073ffffffffffffffffffffffffffffffffffffffff16600082604051610d639190611428565b908152602001604051809103902060009054906101000a900473ffffffffffffffffffffffffffffffffffffffff1673ffffffffffffffffffffffffffffffffffffffff161415610db357600080fd5b600083604051610dc39190611428565b908152602001604051809103902060009054906101000a900473ffffffffffffffffffffffffffffffffffffffff1673ffffffffffffffffffffffffffffffffffffffff166318160ddd6040518163ffffffff1660e01b815260040160206040518083038186803b158015610e3757600080fd5b505afa158015610e4b573d6000803e3d6000fd5b505050506040513d601f19601f82011682018060405250810190610e6f9190611319565b915050919050565b600083600073ffffffffffffffffffffffffffffffffffffffff16600082604051610ea29190611428565b908152602001604051809103902060009054906101000a900473ffffffffffffffffffffffffffffffffffffffff1673ffffffffffffffffffffffffffffffffffffffff161415610ef257600080fd5b600080600087604051610f059190611428565b908152602001604051809103902060009054906101000a900473ffffffffffffffffffffffffffffffffffffffff1673ffffffffffffffffffffffffffffffffffffffff168686604051602401610f5d9291906114ba565b6040516020818303038152906040527f26444acc000000000000000000000000000000000000000000000000000000007bffffffffffffffffffffffffffffffffffffffffffffffffffffffff19166020820180517bffffffffffffffffffffffffffffffffffffffffffffffffffffffff8381831617835250505050604051610fe79190611411565b600060405180830381855af49150503d8060008114611022576040519150601f19603f3d011682016040523d82523d6000602084013e611027565b606091505b50915091508161103657600080fd5b8080602001905181019061104a9190611112565b93505050509392505050565b60006110696110648461156a565b611539565b90508281526020810184848401111561108157600080fd5b61108c84828561161f565b509392505050565b6000813590506110a381611690565b92915050565b6000815190506110b8816116a7565b92915050565b600082601f8301126110cf57600080fd5b81356110df848260208601611056565b91505092915050565b6000813590506110f7816116be565b92915050565b60008151905061110c816116be565b92915050565b60006020828403121561112457600080fd5b6000611132848285016110a9565b91505092915050565b60006020828403121561114d57600080fd5b600082013567ffffffffffffffff81111561116757600080fd5b611173848285016110be565b91505092915050565b6000806040838503121561118f57600080fd5b600083013567ffffffffffffffff8111156111a957600080fd5b6111b5858286016110be565b92505060206111c685828601611094565b9150509250929050565b6000806000606084860312156111e557600080fd5b600084013567ffffffffffffffff8111156111ff57600080fd5b61120b868287016110be565b935050602061121c86828701611094565b925050604061122d86828701611094565b9150509250925092565b6000806000806080858703121561124d57600080fd5b600085013567ffffffffffffffff81111561126757600080fd5b611273878288016110be565b945050602061128487828801611094565b935050604061129587828801611094565b92505060606112a6878288016110e8565b91505092959194509250565b6000806000606084860312156112c757600080fd5b600084013567ffffffffffffffff8111156112e157600080fd5b6112ed868287016110be565b93505060206112fe86828701611094565b925050604061130f868287016110e8565b9150509250925092565b60006020828403121561132b57600080fd5b6000611339848285016110fd565b91505092915050565b61134b816115d7565b82525050565b61135a816115e9565b82525050565b600061136b8261159a565b61137581856115b0565b935061138581856020860161162e565b80840191505092915050565b600061139c826115a5565b6113a681856115cc565b93506113b681856020860161162e565b80840191505092915050565b60006113cf600b836115bb565b91507f66686766686766686766670000000000000000000000000000000000000000006000830152602082019050919050565b61140b81611615565b82525050565b600061141d8284611360565b915081905092915050565b60006114348284611391565b915081905092915050565b60006020820190506114546000830184611342565b92915050565b600060408201905061146f6000830185611342565b61147c6020830184611342565b9392505050565b60006060820190506114986000830186611342565b6114a56020830185611342565b6114b26040830184611402565b949350505050565b60006040820190506114cf6000830185611342565b6114dc6020830184611402565b9392505050565b60006020820190506114f86000830184611351565b92915050565b60006020820190508181036000830152611517816113c2565b9050919050565b60006020820190506115336000830184611402565b92915050565b6000604051905081810181811067ffffffffffffffff821117156115605761155f611661565b5b8060405250919050565b600067ffffffffffffffff82111561158557611584611661565b5b601f19601f8301169050602081019050919050565b600081519050919050565b600081519050919050565b600081905092915050565b600082825260208201905092915050565b600081905092915050565b60006115e2826115f5565b9050919050565b60008115159050919050565b600073ffffffffffffffffffffffffffffffffffffffff82169050919050565b6000819050919050565b82818337600083830152505050565b60005b8381101561164c578082015181840152602081019050611631565b8381111561165b576000848401525b50505050565b7f4e487b7100000000000000000000000000000000000000000000000000000000600052604160045260246000fd5b611699816115d7565b81146116a457600080fd5b50565b6116b0816115e9565b81146116bb57600080fd5b50565b6116c781611615565b81146116d257600080fd5b5056fea264697066735822122029cd9e73de3cd6a2514ee7b358e904feec680a3868222bd3b3ddb1a4e9e6f0a264736f6c63430008000033",
  "immutableReferences": {},
  "source": "// SPDX-License-Identifier: MIT\r\npragma solidity ^0.8.0;\r\n\r\nimport \"@openzeppelin/contracts/token/ERC20/IERC20.sol\";\r\n\r\ncontract Proxy {\r\n    \r\n    /// @dev Token Symbol -> Token Address\r\n    mapping(string => address) private registeredTokens;\r\n\r\n    /**\r\n     * @notice Throws if symbol is not registed in registeredTokens mapping.\r\n     * @param _symbol string Symbol name to assign token\r\n     */\r\n    modifier onlyRegisteredToken(string memory _symbol) {\r\n        require(registeredTokens[_symbol] != address(0x0));\r\n        _;\r\n    }\r\n\r\n    /**\r\n     * @notice Register the token address to registeredTokens\r\n     * @param _symbol string Symbol name to assign token\r\n     * @param _token address of token contract\r\n     */\r\n    function registerToken(string memory _symbol, address _token) public returns (uint256){\r\n        require( _token != address(0x0), \"fhgfhgfhgfg\");\r\n        registeredTokens[_symbol] = _token;\r\n        return 1;\r\n    }\r\n\r\n    /**\r\n     * @notice Return the totalsupply of the token\r\n     * @param _symbol string Symbol name to assign token.\r\n     * @dev See {IERC20-totalSupply}\r\n     */\r\n    function totalSupply(string memory _symbol) public view onlyRegisteredToken(_symbol) returns (uint256) {\r\n        return IERC20(registeredTokens[_symbol]).totalSupply();\r\n    }\r\n\r\n    /**\r\n     * @notice Return the balance of account's token\r\n     * @param _symbol string Symbol name to assign token\r\n     * @param _account address of Account\r\n     * @dev See {IERC20-balanceOf}.\r\n     */\r\n    function balanceOf(string memory _symbol, address _account) public view onlyRegisteredToken(_symbol) returns (uint256) {\r\n        return IERC20(registeredTokens[_symbol]).balanceOf(_account);\r\n    }\r\n\r\n     /**\r\n     * @dev See {IERC20-transfer}.\r\n     *\r\n     * Requirements:\r\n     *\r\n     * - `recipient` cannot be the zero address.\r\n     * - the caller must have a balance of at least `amount`.\r\n     */\r\n    function transfer(string memory _symbol, address _recipient, uint256 _amount) public onlyRegisteredToken(_symbol) returns (bool) {\r\n        (bool success, bytes memory data) = registeredTokens[_symbol].delegatecall(\r\n            abi.encodeWithSignature(\"transfer(address, uint256)\", _recipient, _amount)\r\n        );\r\n        require(success);\r\n\r\n        return abi.decode(data, (bool));\r\n    }\r\n\r\n    /**\r\n     * @notice Return the allowance amount for spender from owner\r\n     * @param _symbol string Symbol name to assign token\r\n     * @param _owner Owner address which is allowing\r\n     * @param _spender Spender address which is allowed by owner\r\n     * @dev See {IERC20-allowance}.\r\n     */\r\n    function allowance(string memory _symbol, address _owner, address _spender) public view onlyRegisteredToken(_symbol) returns (uint256) {\r\n        return IERC20(registeredTokens[_symbol]).allowance(_owner, _spender);\r\n    }\r\n\r\n    /**\r\n     * @dev See {IERC20-approve}.\r\n     *\r\n     * Requirements:\r\n     *\r\n     * - `spender` cannot be the zero address.\r\n     */\r\n    function approve(string memory _symbol, address _spender, uint256 _amount) public onlyRegisteredToken(_symbol) returns (bool) {\r\n        (bool success, bytes memory data) = registeredTokens[_symbol].delegatecall(\r\n            abi.encodeWithSignature(\"approve(address, uint256)\", _spender, _amount)\r\n        );\r\n        require(success);\r\n\r\n        return abi.decode(data, (bool));\r\n    }\r\n\r\n    /**\r\n     * @dev See {IERC20-transferFrom}.\r\n     *\r\n     * Emits an {Approval} event indicating the updated allowance. This is not\r\n     * required by the EIP. See the note at the beginning of {ERC20}.\r\n     *\r\n     * Requirements:\r\n     *\r\n     * - `sender` and `recipient` cannot be the zero address.\r\n     * - `sender` must have a balance of at least `amount`.\r\n     * - the caller must have allowance for ``sender``'s tokens of at least\r\n     * `amount`.\r\n     */\r\n    function transferFrom(\r\n        string memory _symbol,\r\n        address _sender,\r\n        address _recipient,\r\n        uint256 _amount\r\n    ) public onlyRegisteredToken(_symbol) returns (bool) {\r\n        (bool success, bytes memory data) = registeredTokens[_symbol].delegatecall(\r\n            abi.encodeWithSignature(\"transferFrom(address, address, uint256)\", _sender, _recipient, _amount)\r\n        );\r\n        require(success);\r\n\r\n        return abi.decode(data, (bool));\r\n    }\r\n\r\n    /**\r\n     * @dev Atomically increases the allowance granted to `spender` by the caller.\r\n     *\r\n     * This is an alternative to {approve} that can be used as a mitigation for\r\n     * problems described in {IERC20-approve}.\r\n     *\r\n     * Emits an {Approval} event indicating the updated allowance.\r\n     *\r\n     * Requirements:\r\n     *\r\n     * - `spender` cannot be the zero address.\r\n     */\r\n    function increaseAllowance(string memory _symbol, address _spender, uint256 _addedValue) public onlyRegisteredToken(_symbol) returns (bool) {\r\n        (bool success, bytes memory data) = registeredTokens[_symbol].delegatecall(\r\n            abi.encodeWithSignature(\"increaseAllowance(address, uint256)\", _spender, _addedValue)\r\n        );\r\n        require(success);\r\n\r\n        return abi.decode(data, (bool));\r\n    }\r\n\r\n    /**\r\n     * @dev Atomically decreases the allowance granted to `spender` by the caller.\r\n     *\r\n     * This is an alternative to {approve} that can be used as a mitigation for\r\n     * problems described in {IERC20-approve}.\r\n     *\r\n     * Emits an {Approval} event indicating the updated allowance.\r\n     *\r\n     * Requirements:\r\n     *\r\n     * - `spender` cannot be the zero address.\r\n     * - `spender` must have allowance for the caller of at least\r\n     * `subtractedValue`.\r\n     */\r\n    function decreaseAllowance(string memory _symbol, address _spender, uint256 _subtractedValue) public onlyRegisteredToken(_symbol) returns (bool) {\r\n        (bool success, bytes memory data) = registeredTokens[_symbol].delegatecall(\r\n            abi.encodeWithSignature(\"decreaseAllowance(address, uint256)\", _spender, _subtractedValue)\r\n        );\r\n        require(success);\r\n\r\n        return abi.decode(data, (bool));\r\n    }\r\n}",
  "sourcePath": "C:/Users/admin/Documents/roci_token/contracts/proxy/Proxy.sol",
  "compiler": {
    "name": "solc",
    "version": "0.8.0+commit.c7dfd78e.Emscripten.clang"
  },
  "schemaVersion": "3.4.1",
  "updatedAt": "2021-07-02T08:25:55.986Z",
  "devdoc": {
    "kind": "dev",
    "methods": {
      "allowance(string,address,address)": {
        "details": "See {IERC20-allowance}.",
        "params": {
          "_owner": "Owner address which is allowing",
          "_spender": "Spender address which is allowed by owner",
          "_symbol": "string Symbol name to assign token"
        }
      },
      "approve(string,address,uint256)": {
        "details": "See {IERC20-approve}. Requirements: - `spender` cannot be the zero address."
      },
      "balanceOf(string,address)": {
        "details": "See {IERC20-balanceOf}.",
        "params": {
          "_account": "address of Account",
          "_symbol": "string Symbol name to assign token"
        }
      },
      "decreaseAllowance(string,address,uint256)": {
        "details": "Atomically decreases the allowance granted to `spender` by the caller. This is an alternative to {approve} that can be used as a mitigation for problems described in {IERC20-approve}. Emits an {Approval} event indicating the updated allowance. Requirements: - `spender` cannot be the zero address. - `spender` must have allowance for the caller of at least `subtractedValue`."
      },
      "increaseAllowance(string,address,uint256)": {
        "details": "Atomically increases the allowance granted to `spender` by the caller. This is an alternative to {approve} that can be used as a mitigation for problems described in {IERC20-approve}. Emits an {Approval} event indicating the updated allowance. Requirements: - `spender` cannot be the zero address."
      },
      "registerToken(string,address)": {
        "params": {
          "_symbol": "string Symbol name to assign token",
          "_token": "address of token contract"
        }
      },
      "totalSupply(string)": {
        "details": "See {IERC20-totalSupply}",
        "params": {
          "_symbol": "string Symbol name to assign token."
        }
      },
      "transfer(string,address,uint256)": {
        "details": "See {IERC20-transfer}. Requirements: - `recipient` cannot be the zero address. - the caller must have a balance of at least `amount`."
      },
      "transferFrom(string,address,address,uint256)": {
        "details": "See {IERC20-transferFrom}. Emits an {Approval} event indicating the updated allowance. This is not required by the EIP. See the note at the beginning of {ERC20}. Requirements: - `sender` and `recipient` cannot be the zero address. - `sender` must have a balance of at least `amount`. - the caller must have allowance for ``sender``'s tokens of at least `amount`."
      }
    },
    "stateVariables": {
      "registeredTokens": {
        "details": "Token Symbol -> Token Address"
      }
    },
    "version": 1
  },
  "userdoc": {
    "kind": "user",
    "methods": {
      "allowance(string,address,address)": {
        "notice": "Return the allowance amount for spender from owner"
      },
      "balanceOf(string,address)": {
        "notice": "Return the balance of account's token"
      },
      "registerToken(string,address)": {
        "notice": "Register the token address to registeredTokens"
      },
      "totalSupply(string)": {
        "notice": "Return the totalsupply of the token"
      }
    },
    "version": 1
  }
}